:02000000E729EE
:06000600000000000800EC
:0E000C00213083120313FD00FD0B0A280800AB
:10001A000F3083120313FC004730FD00FD0B132839
:0A002A00FC0B132800000000080082
:1000340083120313F801F9011030FC00710DF80D5F
:10004400F90D7408F8027508031C750FF9020318FA
:1000540032287408F80775080318750FF907031098
:0A006400F00DF10DFC0B2028080040
:10006E0083160313DF1B3E28831288114028831248
:10007E00881583165F1B46288312081148288312A1
:10008E0008158316DF1A4E28831288105028831203
:10009E00881483165F1A5628831208105828831264
:1000AE0008146F185C2808165D280812881603209D
:1000BE0088128316DF196628831288116828831226
:1000CE00881583165F196E28831208117028831203
:1000DE0008158316DF187628831288107828831265
:1000EE00881483165F187E288312081080288312C6
:1000FE0008146F18842808168528081288160320FD
:0E010E0088126F1C8C280D208D2806200800FA
:10011C00831203136F1083165A08DF0037206F14F5
:02012C000800C9
:0E012E008316031341088A004008820008006F
:10013C0083160313DD0105305D020318AC285D083E
:10014C005C07840020308000DD0AA1285D085C0774
:10015C0084008001DD035D085C07DE000A30F400DA
:10016C00F5015A08F0005B08F1001A207808F0003D
:10017C007908F1003030F00783165E0884007008AF
:10018C0080000A30F400F5015A08F0005B08F10019
:10019C001A2070088316DA007108DB000030710633
:1001AC00031DDA2800307006031DDD28DF28DD036F
:0401BC00B12808005E
:1001C00083160313D601D7015108D8005208D9006D
:1001D00080305206F00080307002031DF12800309C
:1001E00051020318FF280130D6000030D700510813
:1001F000003CD8005208031C013ED901D90258081E
:10020000DA005908DB005308DC009E200630D400D9
:100210000030D5005508003C031D10295408003C4F
:1002200003182B2954085307F20001305402F00040
:100230000030031C013E5502F10070085307840092
:100240000008F00072088400700880000130D402B9
:10025000031CD5030A295308840020308000560867
:10026000570403194929D401D501540853078400C0
:100270000008203A031D4029D40A0319D50A35295C
:100280000130D402031CD5035408530784002D30D9
:0402900080000800E2
:100294005C29803083160313D1006F29C030D1004C
:1002A4006F299430D1006F29D430D1006F29803068
:1002B400D1006F29831603135108013A03194B29FE
:1002C4005108023A031950295108033A03195329D2
:1002D4005108043A0319562959295203F0005108C8
:1002E400F0077008D1007008DF0037206F10831604
:1002F400D401540853078400000803198A295408B8
:10030400530784000008DA008E208316D40A7B2960
:0603140083126F140800C3
:10031A0097208A110A128000840AC00A0319C10AA6
:08032A00F003031D8D290800FA
:1003320083160313881208120810881008118811F6
:1003420083128812081288110811881008100D20D3
:100352000D200D20881408148816032088120D2001
:100362008816032088120D208816032088120D207B
:1003720008108816032088120D2088160320881280
:10038200881088158816032088120D2088110814F9
:1003920088160320881208108816032088120D2060
:1003A20088160320881208148816032088120D204C
:1003B2000810881603208812881508158814081456
:0C03C2008816032088120D206F1408001C
:1003CE00D82383160313C801C901CA01CB01CC017E
:1003DE00CD01CE01CF01D0018501FF30860087010E
:1003EE00831287019921061D0B2A8030F000803080
:1003FE0083164F067002031D062A4E080A3C031C84
:10040E000B2ACC010130D0008312061D1C2A80302D
:10041E00F000803083164F067002031D182A4E0816
:10042E000A3C03181C2A8312051583120619642A26
:10043E0001308316CD000230D0008312061A4C2AEA
:10044E0005308316CE070318CF0A0430FB000C309C
:10045E00FC003330FD00FD0B322AFC0B322AFB0B65
:10046E00322A000000000330D00080304F06F0002A
:10047E0080307002031D452A5F304E02031C4B2A4A
:10048E005F30CE000030CF00642A8312061B642A30
:10049E0003308316CE02031CCF030430FB000C3056
:1004AE00FC003330FD00FD0B5A2AFC0B5A2AFB0BC5
:1004BE005A2A000000000430D00083165008013A7A
:1004CE00031DD02A4C08CE3EF00003300318013E27
:1004DE00F1000030CC1BFF30F1077008C00071082E
:1004EE00C10097208A110A12831287008316C80151
:1004FE00C901CA01CB0100304B02031D902A003006
:10050E004A02031D902A3A304902031D902A983060
:10051E0048020318C12A8312061DC12A0B30FB00A4
:10052E002630FC005D30FD00FD0B9B2AFC0B9B2A48
:10053E00FB0B9B2A00000000E830F0000330F100B6
:10054E00F201F30183164808F00749080318490F12
:10055E00F1074A0803184A0FF2074B0803184B0F0E
:10056E00F3077008C8007108C9007208CA00730842
:10057E00CB00822A8312061DD02A01308316DF009B
:10058E00372004308316D1000130D2005830D3000A
:10059E004A2183165008023A031DE92A4D08CE3E21
:1005AE00F00003300318013EF1000030CD1BFF3088
:1005BE00F1077008C0007108C10097208A110A1255
:1005CE008312870083165008033A031D182B01303F
:1005DE00DF00372002308316D1000130D200AB305D
:1005EE00D3004A2103308316D1000130D200A0304F
:1005FE00D3004A2101308316D1000130D2003530AC
:10060E00D3004A2183164E08D1004F08D200C230C3
:10061E00D300E0200130D1000C30D200C230D30024
:10062E004A2183165008043A031D472B0130DF0080
:10063E00372002308316D1000130D2002030D30093
:10064E004A2103308316D1000130D2004130D3004D
:10065E004A2101308316D1000130D2004C30D30034
:10066E004A2183164E08D1004F08D200C230D30063
:10067E00E0200130D1000C30D200C230D3004A212C
:10068E008030F000803083164F067002031D512B10
:10069E004E083C3C0318562B83128515582B83129B
:0606AE008511FA29592B09
:1007B000203084004F3083120313F0005F30831623
:1007C000C0000330C1008D21A0308400203083128E
:1007D000F000AE308316C0000330C1008D21080048
:1006BE00563465346C346F34633469346434613465
:1006CE0064346C3469346D346934743465343A345A
:0A06DE00363430346B346D340034D0
:1006E800563465346C346F3463346934643461343B
:0806F80064343A34203400346C
:10070000443465346334723465346D3465346E3426
:0607100074346F34003464
:10071600563465346C346F3463346934643461340C
:0807260064343A34203400343D
:10072E00433441344D3442344934413452344134EB
:10073E00203445344E3420344D344F3456344934FD
:0E074E004D34493445344E3454344F34003465
:10075C0049346E346334723465346D3465346E34BC
:06076C0074346F34003408
:10077200563465346C346F346334693464346134B0
:1007820064346C3469346D346934743465343A34A5
:0A079200363430346B346D3400341B
:10079C003F3406345B344F3466346D347D34073467
:0407AC007F346F34F3
:02400E007A3BFB
:00000001FF
